{
  "contractName": "MentoriaDescentralizada",
  "abi": [
    {
      "anonymous": false,
      "inputs": [
        {
          "indexed": true,
          "internalType": "address",
          "name": "estudiante",
          "type": "address"
        },
        {
          "indexed": true,
          "internalType": "address",
          "name": "mentor",
          "type": "address"
        }
      ],
      "name": "Emparejamiento",
      "type": "event"
    },
    {
      "anonymous": false,
      "inputs": [
        {
          "indexed": true,
          "internalType": "address",
          "name": "estudiante",
          "type": "address"
        },
        {
          "indexed": true,
          "internalType": "address",
          "name": "mentor",
          "type": "address"
        },
        {
          "indexed": false,
          "internalType": "string",
          "name": "informe",
          "type": "string"
        }
      ],
      "name": "InformeProgreso",
      "type": "event"
    },
    {
      "inputs": [
        {
          "internalType": "address",
          "name": "",
          "type": "address"
        }
      ],
      "name": "estudiantes",
      "outputs": [
        {
          "internalType": "address",
          "name": "direccion",
          "type": "address"
        },
        {
          "internalType": "string",
          "name": "nombre",
          "type": "string"
        },
        {
          "internalType": "bool",
          "name": "estaEmparejado",
          "type": "bool"
        },
        {
          "internalType": "address",
          "name": "mentor",
          "type": "address"
        }
      ],
      "stateMutability": "view",
      "type": "function"
    },
    {
      "inputs": [
        {
          "internalType": "address",
          "name": "",
          "type": "address"
        }
      ],
      "name": "mentores",
      "outputs": [
        {
          "internalType": "address",
          "name": "direccion",
          "type": "address"
        },
        {
          "internalType": "string",
          "name": "nombre",
          "type": "string"
        },
        {
          "internalType": "bool",
          "name": "estaEmparejado",
          "type": "bool"
        },
        {
          "internalType": "address",
          "name": "estudiante",
          "type": "address"
        }
      ],
      "stateMutability": "view",
      "type": "function"
    },
    {
      "inputs": [
        {
          "internalType": "string",
          "name": "_nombre",
          "type": "string"
        }
      ],
      "name": "registrarEstudiante",
      "outputs": [],
      "stateMutability": "nonpayable",
      "type": "function"
    },
    {
      "inputs": [
        {
          "internalType": "string",
          "name": "_nombre",
          "type": "string"
        }
      ],
      "name": "registrarMentor",
      "outputs": [],
      "stateMutability": "nonpayable",
      "type": "function"
    },
    {
      "inputs": [
        {
          "internalType": "address",
          "name": "_mentor",
          "type": "address"
        }
      ],
      "name": "emparejarEstudiante",
      "outputs": [],
      "stateMutability": "nonpayable",
      "type": "function"
    },
    {
      "inputs": [
        {
          "internalType": "address",
          "name": "_mentor",
          "type": "address"
        },
        {
          "internalType": "string",
          "name": "_informe",
          "type": "string"
        }
      ],
      "name": "actualizarProgreso",
      "outputs": [],
      "stateMutability": "nonpayable",
      "type": "function"
    },
    {
      "inputs": [
        {
          "internalType": "address",
          "name": "_mentor",
          "type": "address"
        },
        {
          "internalType": "string",
          "name": "_informe",
          "type": "string"
        }
      ],
      "name": "informarProgreso",
      "outputs": [],
      "stateMutability": "nonpayable",
      "type": "function"
    }
  ],
  "bytecode": "0x608060405234801561000f575f80fd5b50611ad98061001d5f395ff3fe608060405234801561000f575f80fd5b506004361061007b575f3560e01c80639ba98d66116100595780639ba98d66146100d35780639e2db41a146100ef578063d1a47d5414610122578063de234187146101555761007b565b8063654607891461007f57806375f75d801461009b5780638af5fb9f146100b7575b5f80fd5b61009960048036038101906100949190611114565b610171565b005b6100b560048036038101906100b0919061127b565b610629565b005b6100d160048036038101906100cc919061127b565b6108b5565b005b6100ed60048036038101906100e891906112d5565b610a76565b005b61010960048036038101906101049190611114565b610c92565b60405161011994939291906113bf565b60405180910390f35b61013c60048036038101906101379190611114565b610d8e565b60405161014c94939291906113bf565b60405180910390f35b61016f600480360381019061016a91906112d5565b610e8b565b005b5f73ffffffffffffffffffffffffffffffffffffffff165f803373ffffffffffffffffffffffffffffffffffffffff1673ffffffffffffffffffffffffffffffffffffffff1681526020019081526020015f205f015f9054906101000a900473ffffffffffffffffffffffffffffffffffffffff1673ffffffffffffffffffffffffffffffffffffffff160361023c576040517f08c379a000000000000000000000000000000000000000000000000000000000815260040161023390611453565b60405180910390fd5b5f73ffffffffffffffffffffffffffffffffffffffff1660015f8373ffffffffffffffffffffffffffffffffffffffff1673ffffffffffffffffffffffffffffffffffffffff1681526020019081526020015f205f015f9054906101000a900473ffffffffffffffffffffffffffffffffffffffff1673ffffffffffffffffffffffffffffffffffffffff1603610308576040517f08c379a00000000000000000000000000000000000000000000000000000000081526004016102ff906114bb565b60405180910390fd5b5f803373ffffffffffffffffffffffffffffffffffffffff1673ffffffffffffffffffffffffffffffffffffffff1681526020019081526020015f206002015f9054906101000a900460ff1615610394576040517f08c379a000000000000000000000000000000000000000000000000000000000815260040161038b90611523565b60405180910390fd5b60015f8273ffffffffffffffffffffffffffffffffffffffff1673ffffffffffffffffffffffffffffffffffffffff1681526020019081526020015f206002015f9054906101000a900460ff1615610421576040517f08c379a00000000000000000000000000000000000000000000000000000000081526004016104189061158b565b60405180910390fd5b60015f803373ffffffffffffffffffffffffffffffffffffffff1673ffffffffffffffffffffffffffffffffffffffff1681526020019081526020015f206002015f6101000a81548160ff021916908315150217905550805f803373ffffffffffffffffffffffffffffffffffffffff1673ffffffffffffffffffffffffffffffffffffffff1681526020019081526020015f2060020160016101000a81548173ffffffffffffffffffffffffffffffffffffffff021916908373ffffffffffffffffffffffffffffffffffffffff1602179055506001805f8373ffffffffffffffffffffffffffffffffffffffff1673ffffffffffffffffffffffffffffffffffffffff1681526020019081526020015f206002015f6101000a81548160ff0219169083151502179055503360015f8373ffffffffffffffffffffffffffffffffffffffff1673ffffffffffffffffffffffffffffffffffffffff1681526020019081526020015f2060020160016101000a81548173ffffffffffffffffffffffffffffffffffffffff021916908373ffffffffffffffffffffffffffffffffffffffff1602179055508073ffffffffffffffffffffffffffffffffffffffff163373ffffffffffffffffffffffffffffffffffffffff167f52a747b446848245109571c40bb6fcc1dbc8e1731e3f10bdb3cc40917f6d0c9760405160405180910390a350565b5f73ffffffffffffffffffffffffffffffffffffffff165f803373ffffffffffffffffffffffffffffffffffffffff1673ffffffffffffffffffffffffffffffffffffffff1681526020019081526020015f205f015f9054906101000a900473ffffffffffffffffffffffffffffffffffffffff1673ffffffffffffffffffffffffffffffffffffffff16036106f4576040517f08c379a00000000000000000000000000000000000000000000000000000000081526004016106eb90611453565b60405180910390fd5b5f803373ffffffffffffffffffffffffffffffffffffffff1673ffffffffffffffffffffffffffffffffffffffff1681526020019081526020015f206002015f9054906101000a900460ff1661077f576040517f08c379a0000000000000000000000000000000000000000000000000000000008152600401610776906115f3565b60405180910390fd5b8173ffffffffffffffffffffffffffffffffffffffff165f803373ffffffffffffffffffffffffffffffffffffffff1673ffffffffffffffffffffffffffffffffffffffff1681526020019081526020015f2060020160019054906101000a900473ffffffffffffffffffffffffffffffffffffffff1673ffffffffffffffffffffffffffffffffffffffff161461084c576040517f08c379a00000000000000000000000000000000000000000000000000000000081526004016108439061165b565b60405180910390fd5b8173ffffffffffffffffffffffffffffffffffffffff163373ffffffffffffffffffffffffffffffffffffffff167f076155a8f383dbb9a6ef48758c5a6a7e5d307a6e84d96bd56ee229503cc65db5836040516108a99190611679565b60405180910390a35050565b5f803373ffffffffffffffffffffffffffffffffffffffff1673ffffffffffffffffffffffffffffffffffffffff1681526020019081526020015f206002015f9054906101000a900460ff16610940576040517f08c379a0000000000000000000000000000000000000000000000000000000008152600401610937906115f3565b60405180910390fd5b8173ffffffffffffffffffffffffffffffffffffffff165f803373ffffffffffffffffffffffffffffffffffffffff1673ffffffffffffffffffffffffffffffffffffffff1681526020019081526020015f2060020160019054906101000a900473ffffffffffffffffffffffffffffffffffffffff1673ffffffffffffffffffffffffffffffffffffffff1614610a0d576040517f08c379a0000000000000000000000000000000000000000000000000000000008152600401610a04906116e3565b60405180910390fd5b8173ffffffffffffffffffffffffffffffffffffffff163373ffffffffffffffffffffffffffffffffffffffff167f076155a8f383dbb9a6ef48758c5a6a7e5d307a6e84d96bd56ee229503cc65db583604051610a6a9190611679565b60405180910390a35050565b5f73ffffffffffffffffffffffffffffffffffffffff165f803373ffffffffffffffffffffffffffffffffffffffff1673ffffffffffffffffffffffffffffffffffffffff1681526020019081526020015f205f015f9054906101000a900473ffffffffffffffffffffffffffffffffffffffff1673ffffffffffffffffffffffffffffffffffffffff1614610b41576040517f08c379a0000000000000000000000000000000000000000000000000000000008152600401610b389061174b565b60405180910390fd5b60405180608001604052803373ffffffffffffffffffffffffffffffffffffffff1681526020018281526020015f151581526020015f73ffffffffffffffffffffffffffffffffffffffff168152505f803373ffffffffffffffffffffffffffffffffffffffff1673ffffffffffffffffffffffffffffffffffffffff1681526020019081526020015f205f820151815f015f6101000a81548173ffffffffffffffffffffffffffffffffffffffff021916908373ffffffffffffffffffffffffffffffffffffffff1602179055506020820151816001019081610c25919061196c565b506040820151816002015f6101000a81548160ff02191690831515021790555060608201518160020160016101000a81548173ffffffffffffffffffffffffffffffffffffffff021916908373ffffffffffffffffffffffffffffffffffffffff16021790555090505050565b5f602052805f5260405f205f91509050805f015f9054906101000a900473ffffffffffffffffffffffffffffffffffffffff1690806001018054610cd590611796565b80601f0160208091040260200160405190810160405280929190818152602001828054610d0190611796565b8015610d4c5780601f10610d2357610100808354040283529160200191610d4c565b820191905f5260205f20905b815481529060010190602001808311610d2f57829003601f168201915b505050505090806002015f9054906101000a900460ff16908060020160019054906101000a900473ffffffffffffffffffffffffffffffffffffffff16905084565b6001602052805f5260405f205f91509050805f015f9054906101000a900473ffffffffffffffffffffffffffffffffffffffff1690806001018054610dd290611796565b80601f0160208091040260200160405190810160405280929190818152602001828054610dfe90611796565b8015610e495780601f10610e2057610100808354040283529160200191610e49565b820191905f5260205f20905b815481529060010190602001808311610e2c57829003601f168201915b505050505090806002015f9054906101000a900460ff16908060020160019054906101000a900473ffffffffffffffffffffffffffffffffffffffff16905084565b5f73ffffffffffffffffffffffffffffffffffffffff1660015f3373ffffffffffffffffffffffffffffffffffffffff1673ffffffffffffffffffffffffffffffffffffffff1681526020019081526020015f205f015f9054906101000a900473ffffffffffffffffffffffffffffffffffffffff1673ffffffffffffffffffffffffffffffffffffffff1614610f57576040517f08c379a0000000000000000000000000000000000000000000000000000000008152600401610f4e90611a85565b60405180910390fd5b60405180608001604052803373ffffffffffffffffffffffffffffffffffffffff1681526020018281526020015f151581526020015f73ffffffffffffffffffffffffffffffffffffffff1681525060015f3373ffffffffffffffffffffffffffffffffffffffff1673ffffffffffffffffffffffffffffffffffffffff1681526020019081526020015f205f820151815f015f6101000a81548173ffffffffffffffffffffffffffffffffffffffff021916908373ffffffffffffffffffffffffffffffffffffffff160217905550602082015181600101908161103c919061196c565b506040820151816002015f6101000a81548160ff02191690831515021790555060608201518160020160016101000a81548173ffffffffffffffffffffffffffffffffffffffff021916908373ffffffffffffffffffffffffffffffffffffffff16021790555090505050565b5f604051905090565b5f80fd5b5f80fd5b5f73ffffffffffffffffffffffffffffffffffffffff82169050919050565b5f6110e3826110ba565b9050919050565b6110f3816110d9565b81146110fd575f80fd5b50565b5f8135905061110e816110ea565b92915050565b5f60208284031215611129576111286110b2565b5b5f61113684828501611100565b91505092915050565b5f80fd5b5f80fd5b5f601f19601f8301169050919050565b7f4e487b71000000000000000000000000000000000000000000000000000000005f52604160045260245ffd5b61118d82611147565b810181811067ffffffffffffffff821117156111ac576111ab611157565b5b80604052505050565b5f6111be6110a9565b90506111ca8282611184565b919050565b5f67ffffffffffffffff8211156111e9576111e8611157565b5b6111f282611147565b9050602081019050919050565b828183375f83830152505050565b5f61121f61121a846111cf565b6111b5565b90508281526020810184848401111561123b5761123a611143565b5b6112468482856111ff565b509392505050565b5f82601f8301126112625761126161113f565b5b813561127284826020860161120d565b91505092915050565b5f8060408385031215611291576112906110b2565b5b5f61129e85828601611100565b925050602083013567ffffffffffffffff8111156112bf576112be6110b6565b5b6112cb8582860161124e565b9150509250929050565b5f602082840312156112ea576112e96110b2565b5b5f82013567ffffffffffffffff811115611307576113066110b6565b5b6113138482850161124e565b91505092915050565b611325816110d9565b82525050565b5f81519050919050565b5f82825260208201905092915050565b5f5b83811015611362578082015181840152602081019050611347565b5f8484015250505050565b5f6113778261132b565b6113818185611335565b9350611391818560208601611345565b61139a81611147565b840191505092915050565b5f8115159050919050565b6113b9816113a5565b82525050565b5f6080820190506113d25f83018761131c565b81810360208301526113e4818661136d565b90506113f360408301856113b0565b611400606083018461131c565b95945050505050565b7f457374756469616e7465206e6f207265676973747261646f00000000000000005f82015250565b5f61143d601883611335565b915061144882611409565b602082019050919050565b5f6020820190508181035f83015261146a81611431565b9050919050565b7f4d656e746f72206e6f207265676973747261646f0000000000000000000000005f82015250565b5f6114a5601483611335565b91506114b082611471565b602082019050919050565b5f6020820190508181035f8301526114d281611499565b9050919050565b7f457374756469616e746520796120656d706172656a61646f00000000000000005f82015250565b5f61150d601883611335565b9150611518826114d9565b602082019050919050565b5f6020820190508181035f83015261153a81611501565b9050919050565b7f4d656e746f7220796120656d706172656a61646f0000000000000000000000005f82015250565b5f611575601483611335565b915061158082611541565b602082019050919050565b5f6020820190508181035f8301526115a281611569565b9050919050565b7f457374756469616e7465206e6f20656d706172656a61646f00000000000000005f82015250565b5f6115dd601883611335565b91506115e8826115a9565b602082019050919050565b5f6020820190508181035f83015261160a816115d1565b9050919050565b7f4e6f20656d706172656a61646f20636f6e2065737465206d656e746f720000005f82015250565b5f611645601d83611335565b915061165082611611565b602082019050919050565b5f6020820190508181035f83015261167281611639565b9050919050565b5f6020820190508181035f830152611691818461136d565b905092915050565b7f4e6f20657320656c206d656e746f7220636f72726563746f00000000000000005f82015250565b5f6116cd601883611335565b91506116d882611699565b602082019050919050565b5f6020820190508181035f8301526116fa816116c1565b9050919050565b7f457374756469616e7465207961207265676973747261646f00000000000000005f82015250565b5f611735601883611335565b915061174082611701565b602082019050919050565b5f6020820190508181035f83015261176281611729565b9050919050565b7f4e487b71000000000000000000000000000000000000000000000000000000005f52602260045260245ffd5b5f60028204905060018216806117ad57607f821691505b6020821081036117c0576117bf611769565b5b50919050565b5f819050815f5260205f209050919050565b5f6020601f8301049050919050565b5f82821b905092915050565b5f600883026118227fffffffffffffffffffffffffffffffffffffffffffffffffffffffffffffffff826117e7565b61182c86836117e7565b95508019841693508086168417925050509392505050565b5f819050919050565b5f819050919050565b5f61187061186b61186684611844565b61184d565b611844565b9050919050565b5f819050919050565b61188983611856565b61189d61189582611877565b8484546117f3565b825550505050565b5f90565b6118b16118a5565b6118bc818484611880565b505050565b5b818110156118df576118d45f826118a9565b6001810190506118c2565b5050565b601f821115611924576118f5816117c6565b6118fe846117d8565b8101602085101561190d578190505b611921611919856117d8565b8301826118c1565b50505b505050565b5f82821c905092915050565b5f6119445f1984600802611929565b1980831691505092915050565b5f61195c8383611935565b9150826002028217905092915050565b6119758261132b565b67ffffffffffffffff81111561198e5761198d611157565b5b6119988254611796565b6119a38282856118e3565b5f60209050601f8311600181146119d4575f84156119c2578287015190505b6119cc8582611951565b865550611a33565b601f1984166119e2866117c6565b5f5b82811015611a09578489015182556001820191506020850194506020810190506119e4565b86831015611a265784890151611a22601f891682611935565b8355505b6001600288020188555050505b505050505050565b7f4d656e746f72207961207265676973747261646f0000000000000000000000005f82015250565b5f611a6f601483611335565b9150611a7a82611a3b565b602082019050919050565b5f6020820190508181035f830152611a9c81611a63565b905091905056fea26469706673582212206d5202b0700863faeb5ef15827efa96c591adfd37e2f4591ac3efd5f6e2dfe6964736f6c63430008150033",
  "immutableReferences": {},
  "source": "// SPDX-License-Identifier: MIT\r\npragma solidity ^0.8.0;\r\n\r\ncontract MentoriaDescentralizada {\r\n    // Estructura de datos para representar a un estudiante\r\n    struct Estudiante {\r\n        address direccion;\r\n        string nombre;\r\n        bool estaEmparejado;\r\n        address mentor;\r\n    }\r\n\r\n    // Estructura de datos para representar a un mentor\r\n    struct Mentor {\r\n        address direccion;\r\n        string nombre;\r\n        bool estaEmparejado;\r\n        address estudiante;\r\n    }\r\n\r\n    // Almacena a los estudiantes y mentores registrados\r\n    mapping(address => Estudiante) public estudiantes;\r\n    mapping(address => Mentor) public mentores;\r\n\r\n    // Evento emitido cuando se realiza una nueva asignacin de tutora\r\n    event Emparejamiento(address indexed estudiante, address indexed mentor);\r\n\r\n    // Funcin para que un estudiante se registre en la plataforma\r\n    function registrarEstudiante(string memory _nombre) public {\r\n        require(estudiantes[msg.sender].direccion == address(0), \"Estudiante ya registrado\");\r\n        estudiantes[msg.sender] = Estudiante(msg.sender, _nombre, false, address(0));\r\n    }\r\n\r\n    // Funcin para que un mentor se registre en la plataforma\r\n    function registrarMentor(string memory _nombre) public {\r\n        require(mentores[msg.sender].direccion == address(0), \"Mentor ya registrado\");\r\n        mentores[msg.sender] = Mentor(msg.sender, _nombre, false, address(0));\r\n    }\r\n\r\n    // Funcin para emparejar un estudiante con un mentor\r\n    function emparejarEstudiante(address _mentor) public {\r\n        require(estudiantes[msg.sender].direccion != address(0), \"Estudiante no registrado\");\r\n        require(mentores[_mentor].direccion != address(0), \"Mentor no registrado\");\r\n        require(!estudiantes[msg.sender].estaEmparejado, \"Estudiante ya emparejado\");\r\n        require(!mentores[_mentor].estaEmparejado, \"Mentor ya emparejado\");\r\n\r\n        // Realizar el emparejamiento\r\n        estudiantes[msg.sender].estaEmparejado = true;\r\n        estudiantes[msg.sender].mentor = _mentor;\r\n        mentores[_mentor].estaEmparejado = true;\r\n        mentores[_mentor].estudiante = msg.sender;\r\n\r\n        // Emitir evento de emparejamiento\r\n        emit Emparejamiento(msg.sender, _mentor);\r\n    }\r\n\r\n    // Funcin para que un estudiante actualice su progreso\r\n    function actualizarProgreso(address _mentor, string memory _informe) public {\r\n        require(estudiantes[msg.sender].direccion != address(0), \"Estudiante no registrado\");\r\n        require(estudiantes[msg.sender].estaEmparejado, \"Estudiante no emparejado\");\r\n        require(estudiantes[msg.sender].mentor == _mentor, \"No emparejado con este mentor\");\r\n\r\n        // Podras agregar lgica adicional aqu para procesar el informe de progreso\r\n\r\n        // Por simplicidad, solo emitimos un evento en este ejemplo\r\n        emit InformeProgreso(msg.sender, _mentor, _informe);\r\n    }\r\n\r\n    // Evento para informar sobre el progreso\r\n    event InformeProgreso(address indexed estudiante, address indexed mentor, string informe);\r\n\r\n     // Funcin para que un estudiante enve un informe de progreso al mentor\r\n    function informarProgreso(address _mentor, string memory _informe) public {\r\n        require(estudiantes[msg.sender].estaEmparejado, \"Estudiante no emparejado\");\r\n        require(estudiantes[msg.sender].mentor == _mentor, \"No es el mentor correcto\");\r\n\r\n        // Emitir el evento de informe de progreso\r\n        emit InformeProgreso(msg.sender, _mentor, _informe);\r\n    }\r\n\r\n}",
  "sourcePath": "D:\\Master_AnaliticaDatos\\HTCHackaton\\EduTracking\\contracts\\MentoriaDescentralizada.sol",
  "compiler": {
    "name": "solc",
    "version": "0.8.21+commit.d9974bed.Emscripten.clang"
  },
  "schemaVersion": "3.4.16",
  "updatedAt": "2024-02-04T13:35:13.767Z",
  "devdoc": {
    "kind": "dev",
    "methods": {},
    "version": 1
  },
  "userdoc": {
    "kind": "user",
    "methods": {},
    "version": 1
  }
}